{"abi":[{"type":"constructor","inputs":[{"name":"token_","type":"address","internalType":"address"},{"name":"oracle_","type":"address","internalType":"address"},{"name":"feeRecipient_","type":"address","internalType":"address"},{"name":"feeBps_","type":"uint16","internalType":"uint16"},{"name":"settleTimeout_","type":"uint64","internalType":"uint64"}],"stateMutability":"nonpayable"},{"type":"function","name":"RESULT_TYPEHASH","inputs":[],"outputs":[{"name":"","type":"bytes32","internalType":"bytes32"}],"stateMutability":"view"},{"type":"function","name":"TOURNAMENT_ROOT_TYPEHASH","inputs":[],"outputs":[{"name":"","type":"bytes32","internalType":"bytes32"}],"stateMutability":"view"},{"type":"function","name":"TOURNAMENT_TYPEHASH","inputs":[],"outputs":[{"name":"","type":"bytes32","internalType":"bytes32"}],"stateMutability":"view"},{"type":"function","name":"acceptOwnership","inputs":[],"outputs":[],"stateMutability":"nonpayable"},{"type":"function","name":"available","inputs":[{"name":"user","type":"address","internalType":"address"}],"outputs":[{"name":"","type":"uint256","internalType":"uint256"}],"stateMutability":"view"},{"type":"function","name":"bankroll","inputs":[{"name":"","type":"address","internalType":"address"}],"outputs":[{"name":"","type":"uint256","internalType":"uint256"}],"stateMutability":"view"},{"type":"function","name":"claimRefund","inputs":[{"name":"tid","type":"bytes32","internalType":"bytes32"},{"name":"account","type":"address","internalType":"address"}],"outputs":[],"stateMutability":"nonpayable"},{"type":"function","name":"claimTimeout","inputs":[{"name":"gameId","type":"bytes32","internalType":"bytes32"}],"outputs":[],"stateMutability":"nonpayable"},{"type":"function","name":"claimTournament","inputs":[{"name":"tid","type":"bytes32","internalType":"bytes32"},{"name":"account","type":"address","internalType":"address"},{"name":"amount","type":"uint256","internalType":"uint256"},{"name":"proof","type":"bytes32[]","internalType":"bytes32[]"}],"outputs":[],"stateMutability":"nonpayable"},{"type":"function","name":"deposit","inputs":[{"name":"amount","type":"uint256","internalType":"uint256"}],"outputs":[],"stateMutability":"nonpayable"},{"type":"function","name":"digestGameResult","inputs":[{"name":"gameId","type":"bytes32","internalType":"bytes32"},{"name":"winner","type":"address","internalType":"address"},{"name":"deadline","type":"uint256","internalType":"uint256"}],"outputs":[{"name":"","type":"bytes32","internalType":"bytes32"}],"stateMutability":"view"},{"type":"function","name":"digestTournamentResult","inputs":[{"name":"tid","type":"bytes32","internalType":"bytes32"},{"name":"players","type":"address[]","internalType":"address[]"},{"name":"payouts","type":"uint256[]","internalType":"uint256[]"},{"name":"deadline","type":"uint256","internalType":"uint256"}],"outputs":[{"name":"","type":"bytes32","internalType":"bytes32"}],"stateMutability":"view"},{"type":"function","name":"digestTournamentRoot","inputs":[{"name":"tid","type":"bytes32","internalType":"bytes32"},{"name":"payoutRoot","type":"bytes32","internalType":"bytes32"},{"name":"totalPayout","type":"uint256","internalType":"uint256"},{"name":"deadline","type":"uint256","internalType":"uint256"}],"outputs":[{"name":"","type":"bytes32","internalType":"bytes32"}],"stateMutability":"view"},{"type":"function","name":"enterTournament","inputs":[{"name":"tid","type":"bytes32","internalType":"bytes32"},{"name":"player","type":"address","internalType":"address"}],"outputs":[],"stateMutability":"nonpayable"},{"type":"function","name":"feeBps","inputs":[],"outputs":[{"name":"","type":"uint16","internalType":"uint16"}],"stateMutability":"view"},{"type":"function","name":"feeRecipient","inputs":[],"outputs":[{"name":"","type":"address","internalType":"address"}],"stateMutability":"view"},{"type":"function","name":"games","inputs":[{"name":"","type":"bytes32","internalType":"bytes32"}],"outputs":[{"name":"white","type":"address","internalType":"address"},{"name":"black","type":"address","internalType":"address"},{"name":"stake","type":"uint256","internalType":"uint256"},{"name":"feeBps","type":"uint16","internalType":"uint16"},{"name":"openedAt","type":"uint64","internalType":"uint64"},{"name":"settled","type":"bool","internalType":"bool"},{"name":"exists","type":"bool","internalType":"bool"}],"stateMutability":"view"},{"type":"function","name":"locked","inputs":[{"name":"","type":"address","internalType":"address"}],"outputs":[{"name":"","type":"uint256","internalType":"uint256"}],"stateMutability":"view"},{"type":"function","name":"openGame","inputs":[{"name":"gameId","type":"bytes32","internalType":"bytes32"},{"name":"white","type":"address","internalType":"address"},{"name":"black","type":"address","internalType":"address"},{"name":"stake","type":"uint256","internalType":"uint256"}],"outputs":[],"stateMutability":"nonpayable"},{"type":"function","name":"openTournament","inputs":[{"name":"tid","type":"bytes32","internalType":"bytes32"},{"name":"buyIn","type":"uint256","internalType":"uint256"}],"outputs":[],"stateMutability":"nonpayable"},{"type":"function","name":"oracle","inputs":[],"outputs":[{"name":"","type":"address","internalType":"address"}],"stateMutability":"view"},{"type":"function","name":"owner","inputs":[],"outputs":[{"name":"","type":"address","internalType":"address"}],"stateMutability":"view"},{"type":"function","name":"paused","inputs":[],"outputs":[{"name":"","type":"bool","internalType":"bool"}],"stateMutability":"view"},{"type":"function","name":"pendingOwner","inputs":[],"outputs":[{"name":"","type":"address","internalType":"address"}],"stateMutability":"view"},{"type":"function","name":"setFee","inputs":[{"name":"feeRecipient_","type":"address","internalType":"address"},{"name":"feeBps_","type":"uint16","internalType":"uint16"}],"outputs":[],"stateMutability":"nonpayable"},{"type":"function","name":"setOracle","inputs":[{"name":"oracle_","type":"address","internalType":"address"}],"outputs":[],"stateMutability":"nonpayable"},{"type":"function","name":"setPaused","inputs":[{"name":"paused_","type":"bool","internalType":"bool"}],"outputs":[],"stateMutability":"nonpayable"},{"type":"function","name":"settleGame","inputs":[{"name":"gameId","type":"bytes32","internalType":"bytes32"},{"name":"winner","type":"address","internalType":"address"},{"name":"deadline","type":"uint256","internalType":"uint256"},{"name":"v","type":"uint8","internalType":"uint8"},{"name":"r","type":"bytes32","internalType":"bytes32"},{"name":"s","type":"bytes32","internalType":"bytes32"}],"outputs":[],"stateMutability":"nonpayable"},{"type":"function","name":"settleTimeout","inputs":[],"outputs":[{"name":"","type":"uint64","internalType":"uint64"}],"stateMutability":"view"},{"type":"function","name":"settleTournament","inputs":[{"name":"tid","type":"bytes32","internalType":"bytes32"},{"name":"winners","type":"address[]","internalType":"address[]"},{"name":"payouts","type":"uint256[]","internalType":"uint256[]"},{"name":"deadline","type":"uint256","internalType":"uint256"},{"name":"v","type":"uint8","internalType":"uint8"},{"name":"r","type":"bytes32","internalType":"bytes32"},{"name":"s","type":"bytes32","internalType":"bytes32"}],"outputs":[],"stateMutability":"nonpayable"},{"type":"function","name":"settleTournamentRoot","inputs":[{"name":"tid","type":"bytes32","internalType":"bytes32"},{"name":"payoutRoot","type":"bytes32","internalType":"bytes32"},{"name":"totalPayout","type":"uint256","internalType":"uint256"},{"name":"deadline","type":"uint256","internalType":"uint256"},{"name":"v","type":"uint8","internalType":"uint8"},{"name":"r","type":"bytes32","internalType":"bytes32"},{"name":"s","type":"bytes32","internalType":"bytes32"}],"outputs":[],"stateMutability":"nonpayable"},{"type":"function","name":"token","inputs":[],"outputs":[{"name":"","type":"address","internalType":"contract IERC20"}],"stateMutability":"view"},{"type":"function","name":"tournamentClaimed","inputs":[{"name":"","type":"bytes32","internalType":"bytes32"},{"name":"","type":"address","internalType":"address"}],"outputs":[{"name":"","type":"bool","internalType":"bool"}],"stateMutability":"view"},{"type":"function","name":"tournamentEntered","inputs":[{"name":"","type":"bytes32","internalType":"bytes32"},{"name":"","type":"address","internalType":"address"}],"outputs":[{"name":"","type":"bool","internalType":"bool"}],"stateMutability":"view"},{"type":"function","name":"tournaments","inputs":[{"name":"","type":"bytes32","internalType":"bytes32"}],"outputs":[{"name":"buyIn","type":"uint256","internalType":"uint256"},{"name":"pool","type":"uint256","internalType":"uint256"},{"name":"claimedAmount","type":"uint256","internalType":"uint256"},{"name":"entrants","type":"uint32","internalType":"uint32"},{"name":"openedAt","type":"uint64","internalType":"uint64"},{"name":"settled","type":"bool","internalType":"bool"},{"name":"payoutRoot","type":"bytes32","internalType":"bytes32"},{"name":"exists","type":"bool","internalType":"bool"}],"stateMutability":"view"},{"type":"function","name":"transferOwnership","inputs":[{"name":"newOwner","type":"address","internalType":"address"}],"outputs":[],"stateMutability":"nonpayable"},{"type":"function","name":"withdraw","inputs":[{"name":"amount","type":"uint256","internalType":"uint256"}],"outputs":[],"stateMutability":"nonpayable"},{"type":"event","name":"Deposited","inputs":[{"name":"user","type":"address","indexed":true,"internalType":"address"},{"name":"amount","type":"uint256","indexed":false,"internalType":"uint256"}],"anonymous":false},{"type":"event","name":"FeeUpdated","inputs":[{"name":"feeRecipient","type":"address","indexed":true,"internalType":"address"},{"name":"feeBps","type":"uint16","indexed":false,"internalType":"uint16"}],"anonymous":false},{"type":"event","name":"GameOpened","inputs":[{"name":"gameId","type":"bytes32","indexed":true,"internalType":"bytes32"},{"name":"white","type":"address","indexed":true,"internalType":"address"},{"name":"black","type":"address","indexed":true,"internalType":"address"},{"name":"stake","type":"uint256","indexed":false,"internalType":"uint256"}],"anonymous":false},{"type":"event","name":"GameRefunded","inputs":[{"name":"gameId","type":"bytes32","indexed":true,"internalType":"bytes32"}],"anonymous":false},{"type":"event","name":"GameSettled","inputs":[{"name":"gameId","type":"bytes32","indexed":true,"internalType":"bytes32"},{"name":"winner","type":"address","indexed":false,"internalType":"address"},{"name":"stake","type":"uint256","indexed":false,"internalType":"uint256"},{"name":"rake","type":"uint256","indexed":false,"internalType":"uint256"}],"anonymous":false},{"type":"event","name":"OracleUpdated","inputs":[{"name":"oldOracle","type":"address","indexed":true,"internalType":"address"},{"name":"newOracle","type":"address","indexed":true,"internalType":"address"}],"anonymous":false},{"type":"event","name":"OwnershipTransferStarted","inputs":[{"name":"previousOwner","type":"address","indexed":true,"internalType":"address"},{"name":"newOwner","type":"address","indexed":true,"internalType":"address"}],"anonymous":false},{"type":"event","name":"OwnershipTransferred","inputs":[{"name":"previousOwner","type":"address","indexed":true,"internalType":"address"},{"name":"newOwner","type":"address","indexed":true,"internalType":"address"}],"anonymous":false},{"type":"event","name":"PausedSet","inputs":[{"name":"paused","type":"bool","indexed":false,"internalType":"bool"}],"anonymous":false},{"type":"event","name":"TournamentClaimed","inputs":[{"name":"tournamentId","type":"bytes32","indexed":true,"internalType":"bytes32"},{"name":"account","type":"address","indexed":true,"internalType":"address"},{"name":"amount","type":"uint256","indexed":false,"internalType":"uint256"}],"anonymous":false},{"type":"event","name":"TournamentEntered","inputs":[{"name":"tournamentId","type":"bytes32","indexed":true,"internalType":"bytes32"},{"name":"player","type":"address","indexed":true,"internalType":"address"}],"anonymous":false},{"type":"event","name":"TournamentOpened","inputs":[{"name":"tournamentId","type":"bytes32","indexed":true,"internalType":"bytes32"},{"name":"buyIn","type":"uint256","indexed":false,"internalType":"uint256"}],"anonymous":false},{"type":"event","name":"TournamentRefunded","inputs":[{"name":"tournamentId","type":"bytes32","indexed":true,"internalType":"bytes32"},{"name":"account","type":"address","indexed":true,"internalType":"address"}],"anonymous":false},{"type":"event","name":"TournamentRootSet","inputs":[{"name":"tournamentId","type":"bytes32","indexed":true,"internalType":"bytes32"},{"name":"payoutRoot","type":"bytes32","indexed":false,"internalType":"bytes32"}],"anonymous":false},{"type":"event","name":"TournamentSettled","inputs":[{"name":"tournamentId","type":"bytes32","indexed":true,"internalType":"bytes32"},{"name":"pool","type":"uint256","indexed":false,"internalType":"uint256"},{"name":"rake","type":"uint256","indexed":false,"internalType":"uint256"}],"anonymous":false},{"type":"event","name":"Withdrawn","inputs":[{"name":"user","type":"address","indexed":true,"internalType":"address"},{"name":"amount","type":"uint256","indexed":false,"internalType":"uint256"}],"anonymous":false},{"type":"error","name":"AlreadyClaimed","inputs":[]},{"type":"error","name":"AlreadyEntered","inputs":[]},{"type":"error","name":"AlreadySettled","inputs":[]},{"type":"error","name":"BadDistribution","inputs":[]},{"type":"error","name":"BadPlayers","inputs":[]},{"type":"error","name":"BadSignature","inputs":[]},{"type":"error","name":"BadWinner","inputs":[]},{"type":"error","name":"Expired","inputs":[]},{"type":"error","name":"GameExists","inputs":[]},{"type":"error","name":"InsufficientUnlocked","inputs":[]},{"type":"error","name":"InvalidProof","inputs":[]},{"type":"error","name":"NoRoot","inputs":[]},{"type":"error","name":"NotEntered","inputs":[]},{"type":"error","name":"NotOracle","inputs":[]},{"type":"error","name":"NotOwner","inputs":[]},{"type":"error","name":"Paused","inputs":[]},{"type":"error","name":"Reentrancy","inputs":[]},{"type":"error","name":"SettleWindowClosed","inputs":[]},{"type":"error","name":"TimeoutNotReached","inputs":[]},{"type":"error","name":"TournamentExists","inputs":[]},{"type":"error","name":"TransferFailed","inputs":[]},{"type":"error","name":"UnknownGame","inputs":[]},{"type":"error","name":"UnknownTournament","inputs":[]},{"type":"error","name":"ZeroStake","inputs":[]}],"bytecode":{"object":"0x60e06040526001600a5534801562000015575f80fd5b50604051620030e9380380620030e983398101604081905262000038916200026c565b6001600160a01b038516158015906200005957506001600160a01b03841615155b80156200006e57506001600160a01b03831615155b620000ac5760405162461bcd60e51b81526020600482015260096024820152683d32b9379030b2323960b91b60448201526064015b60405180910390fd5b6103e88261ffff161115620000f35760405162461bcd60e51b815260206004820152600c60248201526b0cccaca40e8dede40d0d2ced60a31b6044820152606401620000a3565b6001600160a01b038581166080525f80546001600160a01b03199081168784161790915560018054339216919091179055600380549185166001600160b01b031990921691909117600160a01b61ffff85160217600160b01b600160f01b031916600160b01b6001600160401b038416021790554660c05262000241604080518082018252600b81526a4368657373457363726f7760a81b6020918201528151808301835260018152603160f81b9082015281517f8b73c3c69bb8fe3d512ecc4cf759cc79239f7b179b0ffacaa9a75d522b39400f818301527fd60b16d74d928aa68838c64515218e4e6159fd9a65b5a9b2cc9a28d313555d1f818401527fc89efdaa54c0f20c7adf612882df0950f5a951637e0307cdcb4c672f298b8bc660608201524660808201523060a0808301919091528351808303909101815260c0909101909252815191012090565b60a05250620002ee9350505050565b80516001600160a01b038116811462000267575f80fd5b919050565b5f805f805f60a0868803121562000281575f80fd5b6200028c8662000250565b94506200029c6020870162000250565b9350620002ac6040870162000250565b9250606086015161ffff81168114620002c3575f80fd5b60808701519092506001600160401b0381168114620002e0575f80fd5b809150509295509295909350565b60805160a05160c051612dbb6200032e5f395f6123cd01525f6123f501525f818161070c01528181611622015281816116c101526126ff0152612dbb5ff3fe608060405234801561000f575f80fd5b506004361061021e575f3560e01c80637ebdc4781161012a578063cbf9fe5f116100b4578063ed6013d911610079578063ed6013d914610613578063f2fde38b14610626578063f579f88214610639578063f9e5a5ce146106f4578063fc0c546a14610707575f80fd5b8063cbf9fe5f146105a8578063cfce87d1146105c7578063d998e4a4146105da578063ddbf4445146105ed578063e30c397814610600575f80fd5b8063aaa5a02a116100fa578063aaa5a02a14610529578063b6b55f251461053c578063c0f369701461054f578063c6b496881461056e578063c93fb26914610581575f80fd5b80637ebdc478146104aa57806384d8b218146104dc5780638da5cb5b146105035780639726114014610516575f80fd5b806346904840116101ab578063770d0e9e1161017b578063770d0e9e1461045757806379ba50971461046a5780637a0e5336146104725780637adbf973146104855780637dc0d1d014610498575f80fd5b806346904840146103d85780635c975abb146104035780636349d596146104175780636bdaa7f21461042a575f80fd5b806324a9d853116101f157806324a9d8531461033a57806328171308146103625780632e1a7d4d14610375578063337f3a311461038857806333ba35551461039b575f80fd5b806310098ad514610222578063123f8e9f14610248578063139cfab11461026f57806316c38b3c14610325575b5f80fd5b6102356102303660046127da565b61072e565b6040519081526020015b60405180910390f35b6102357f2a237f1478b63a0d5ddf88296d8465d2ff7e54af1ec051703aac39be0192605981565b6102d861027d3660046127fa565b60076020525f908152604090208054600182015460028301546003840154600485015460059095015493949293919263ffffffff8216926001600160401b036401000000008404169260ff600160601b909104811692911688565b6040805198895260208901979097529587019490945263ffffffff90921660608601526001600160401b03166080850152151560a084015260c0830152151560e08201526101000161023f565b610338610333366004612821565b610761565b005b60035461034f90600160a01b900461ffff1681565b60405161ffff909116815260200161023f565b610235610370366004612883565b6107e4565b6103386103833660046127fa565b6108d5565b6103386103963660046128fe565b610991565b6103c86103a9366004612939565b600960209081525f928352604080842090915290825290205460ff1681565b604051901515815260200161023f565b6003546103eb906001600160a01b031681565b6040516001600160a01b03909116815260200161023f565b6003546103c890600160f01b900460ff1681565b610338610425366004612963565b610ab1565b6103c8610438366004612939565b600860209081525f928352604080842090915290825290205460ff1681565b6103386104653660046129d5565b610c90565b610338610f94565b610235610480366004612a29565b611024565b6103386104933660046127da565b6110c3565b5f546103eb906001600160a01b031681565b6003546104c490600160b01b90046001600160401b031681565b6040516001600160401b03909116815260200161023f565b6102357ff16d7067367ca2a81af2e165f33d02acc285d94d709ff5aaab7312c1b001397f81565b6001546103eb906001600160a01b031681565b610338610524366004612a58565b611189565b6103386105373660046127fa565b611456565b61033861054a3660046127fa565b6115b8565b61023561055d3660046127da565b60046020525f908152604090205481565b61033861057c366004612939565b61179b565b6102357fe3dea364cee9c3cb1cb2880b901df1485a27b61777905d95b1b650dce00b834e81565b6102356105b63660046127da565b60056020525f908152604090205481565b6102356105d5366004612af4565b611985565b6103386105e8366004612b26565b611a24565b6103386105fb366004612939565b611bd5565b6002546103eb906001600160a01b031681565b610338610621366004612b46565b611e04565b6103386106343660046127da565b612168565b6106a46106473660046127fa565b60066020525f908152604090208054600182015460028301546003909301546001600160a01b0392831693919092169161ffff8116906001600160401b03620100008204169060ff600160501b8204811691600160581b90041687565b604080516001600160a01b0398891681529790961660208801529486019390935261ffff90911660608501526001600160401b03166080840152151560a0830152151560c082015260e00161023f565b610338610702366004612b87565b6121e4565b6103eb7f000000000000000000000000000000000000000000000000000000000000000081565b6001600160a01b0381165f90815260056020908152604080832054600490925282205461075b9190612bf2565b92915050565b6001546001600160a01b0316331461078c576040516330cd747160e01b815260040160405180910390fd5b60038054821515600160f01b0260ff60f01b199091161790556040517f40db37ff5c0bdc2c427fbb2078c8f24afea940abac0e3c23bb4ea3bf2da2b212906107d990831515815260200190565b60405180910390a150565b5f807fe3dea364cee9c3cb1cb2880b901df1485a27b61777905d95b1b650dce00b834e88888860405160200161081b929190612c05565b604051602081830303815290604052805190602001208787604051602001610844929190612c44565b60408051601f198184030181528282528051602091820120908301959095528101929092526060820152608081019190915260a0810184905260c0016040516020818303038152906040528051906020012090506108a06123ca565b816040516020016108b2929190612c6b565b604051602081830303815290604052805190602001209150509695505050505050565b600a546001146108f85760405163558a1e0360e11b815260040160405180910390fd5b6002600a556109063361072e565b811115610926576040516313424e8d60e31b815260040160405180910390fd5b335f9081526004602052604081208054839290610944908490612bf2565b90915550610954905033826124ea565b60405181815233907f7084f5476618d8e60b11ef0d7d3f06914655adb8793e28ff7f018d4c76d505d59060200160405180910390a2506001600a55565b6001546001600160a01b031633146109bc576040516330cd747160e01b815260040160405180910390fd5b6001600160a01b038216610a035760405162461bcd60e51b81526020600482015260096024820152683d32b9379030b2323960b91b60448201526064015b60405180910390fd5b6103e88161ffff161115610a485760405162461bcd60e51b815260206004820152600c60248201526b0cccaca40e8dede40d0d2ced60a31b60448201526064016109fa565b600380546001600160a01b0384166001600160b01b03199091168117600160a01b61ffff851690810291909117909255604051918252907f0b35372508b859a302b538add9c7e744f78c2f6211e77f34c14594fc32ad1554906020015b60405180910390a25050565b5f8581526007602052604090206004810154610adf5760405162cccc2760e81b815260040160405180910390fd5b5f8681526009602090815260408083206001600160a01b038916845290915290205460ff1615610b2257604051630c8d9eab60e31b815260040160405180910390fd5b604080516001600160a01b03871660208201529081018590525f9060600160408051601f1981840301815282825280516020918201209083015201604051602081830303815290604052805190602001209050610b85848484600401548461254f565b610ba2576040516309bde33960e01b815260040160405180910390fd5b8160010154858360020154610bb79190612c86565b1115610bd65760405163326fd31d60e01b815260040160405180910390fd5b5f8781526009602090815260408083206001600160a01b038a1684529091528120805460ff19166001179055600283018054879290610c16908490612c86565b90915550506001600160a01b0386165f9081526004602052604081208054879290610c42908490612c86565b90915550506040518581526001600160a01b0387169088907f19d723e4db13752d51609dfbfe7a9ff17eab1a2cab2961a7399c9ecadeb50a849060200160405180910390a350505050505050565b5f8681526006602052604090206003810154600160581b900460ff16610cc95760405163274f9f4960e21b815260040160405180910390fd5b6003810154600160501b900460ff1615610cf55760405162560ff960e81b815260040160405180910390fd5b84421115610d1657604051630407b05b60e31b815260040160405180910390fd5b6001600160a01b03861615801590610d3b575080546001600160a01b03878116911614155b8015610d57575060018101546001600160a01b03878116911614155b15610d755760405163c9682d1b60e01b815260040160405180910390fd5b5f610d81888888611985565b5f549091506001600160a01b0316610d9b828787876125f0565b6001600160a01b031614610dc257604051635cd5d23360e01b815260040160405180910390fd5b60038201805460ff60501b1916600160501b179055600282015482546001600160a01b03165f9081526005602052604081208054839290610e04908490612bf2565b909155505060018301546001600160a01b03165f9081526005602052604081208054839290610e34908490612bf2565b909155505f90506001600160a01b03891615610f3b5783545f906001600160a01b038b8116911614610e705784546001600160a01b0316610e7f565b60018501546001600160a01b03165b600386015490915061271090610e999061ffff1685612c99565b610ea39190612cb0565b6001600160a01b0382165f90815260046020526040812080549294508592909190610ecf908490612bf2565b90915550610edf90508284612bf2565b6001600160a01b038b165f9081526004602052604081208054909190610f06908490612c86565b90915550506003546001600160a01b03165f9081526004602052604081208054849290610f34908490612c86565b9091555050505b604080516001600160a01b038b168152602081018490529081018290528a907f326ba9c202c33ee7513ad31f0f6e5f0d14358358f6170529f0c9fcdc1c4c7a09906060015b60405180910390a250505050505050505050565b6002546001600160a01b03163314610fbf576040516330cd747160e01b815260040160405180910390fd5b6002546001546040516001600160a01b0392831692909116907f8be0079c531659141344cd1fd0a4f28419497f9722a3daafe3b4186f6b6457e0905f90a360028054600180546001600160a01b03199081166001600160a01b03841617909155169055565b604080517ff16d7067367ca2a81af2e165f33d02acc285d94d709ff5aaab7312c1b001397f6020820152908101859052606081018490526080810183905260a081018290525f90819060c0016040516020818303038152906040528051906020012090506110906123ca565b816040516020016110a2929190612c6b565b60405160208183030381529060405280519060200120915050949350505050565b6001546001600160a01b031633146110ee576040516330cd747160e01b815260040160405180910390fd5b6001600160a01b0381166111305760405162461bcd60e51b81526020600482015260096024820152683d32b9379030b2323960b91b60448201526064016109fa565b5f80546040516001600160a01b03808516939216917f078c3b417dadf69374a59793b829c52001247130433427049317bde56607b1b791a35f80546001600160a01b0319166001600160a01b0392909216919091179055565b5f898152600760205260409020600581015460ff166111bb576040516378b1fccb60e11b815260040160405180910390fd5b6003810154600160601b900460ff16156111e75760405162560ff960e81b815260040160405180910390fd5b8442111561120857604051630407b05b60e31b815260040160405180910390fd5b6003805490820154611235916001600160401b03600160b01b909104811691640100000000900416612ccf565b6001600160401b031642111561125e57604051630958f03d60e21b815260040160405180910390fd5b87861461127e5760405163326fd31d60e01b815260040160405180910390fd5b5f61128d8b8b8b8b8b8b6107e4565b5f549091506001600160a01b03166112a7828787876125f0565b6001600160a01b0316146112ce57604051635cd5d23360e01b815260040160405180910390fd5b60038201805460ff60601b1916600160601b1790555f805b8a8110156113925789898281811061130057611300612cf6565b9050602002013560045f8e8e8581811061131c5761131c612cf6565b905060200201602081019061133191906127da565b6001600160a01b03166001600160a01b031681526020019081526020015f205f82825461135e9190612c86565b909155508a9050898281811061137657611376612cf6565b90506020020135826113889190612c86565b91506001016112e6565b5082600101548111156113b85760405163326fd31d60e01b815260040160405180910390fd5b5f8184600101546113c99190612bf2565b90508015611400576003546001600160a01b03165f90815260046020526040812080548392906113fa908490612c86565b90915550505b60018401546002850181905560408051918252602082018390528e917f31b727a9477752ebf03bfc29f94b3676303bb90bdd633a78e883feb20b766267910160405180910390a250505050505050505050505050565b5f8181526006602052604090206003810154600160581b900460ff1661148f5760405163274f9f4960e21b815260040160405180910390fd5b6003810154600160501b900460ff16156114bb5760405162560ff960e81b815260040160405180910390fd5b60038054908201546114e6916001600160401b03600160b01b90910481169162010000900416612ccf565b6001600160401b0316421161150e576040516326c015ab60e21b815260040160405180910390fd5b60038101805460ff60501b1916600160501b179055600281015481546001600160a01b03165f9081526005602052604081208054909190611550908490612bf2565b9091555050600281015460018201546001600160a01b03165f9081526005602052604081208054909190611585908490612bf2565b909155505060405182907f9e51f25002545bc3312c60eecb08520e174f7d0c7586dff7f8e2c336876a1e1f905f90a25050565b600a546001146115db5760405163558a1e0360e11b815260040160405180910390fd5b6002600a55600354600160f01b900460ff161561160b576040516313d0ff5960e31b815260040160405180910390fd5b6040516370a0823160e01b81523060048201525f907f00000000000000000000000000000000000000000000000000000000000000006001600160a01b0316906370a0823190602401602060405180830381865afa15801561166f573d5f803e3d5ffd5b505050506040513d601f19601f820116820180604052508101906116939190612d0a565b90506116a03330846126c0565b6040516370a0823160e01b81523060048201525f9082906001600160a01b037f000000000000000000000000000000000000000000000000000000000000000016906370a0823190602401602060405180830381865afa158015611706573d5f803e3d5ffd5b505050506040513d601f19601f8201168201806040525081019061172a9190612d0a565b6117349190612bf2565b335f90815260046020526040812080549293508392909190611757908490612c86565b909155505060405181815233907f2da466a7b24304f47e87fa2e1e5a81b9831ce54fec19055ce277ca2f39ba42c49060200160405180910390a250506001600a5550565b5f828152600760205260409020600581015460ff166117cd576040516378b1fccb60e11b815260040160405180910390fd5b6003810154600160601b900460ff16156117f95760405162560ff960e81b815260040160405180910390fd5b6003805490820154611826916001600160401b03600160b01b909104811691640100000000900416612ccf565b6001600160401b0316421161184e576040516326c015ab60e21b815260040160405180910390fd5b5f8381526008602090815260408083206001600160a01b038616845290915290205460ff1661189057604051635e51ad7b60e11b815260040160405180910390fd5b5f8381526009602090815260408083206001600160a01b038616845290915290205460ff16156118d357604051630c8d9eab60e31b815260040160405180910390fd5b5f8381526009602090815260408083206001600160a01b03861684529091528120805460ff191660019081179091558254908301805491929091611918908490612bf2565b909155505080546001600160a01b0383165f9081526004602052604081208054909190611946908490612c86565b90915550506040516001600160a01b0383169084907f4bfcfb50c381debd60ebe7c0d55e64cb3b9e49b974105394474b41e16374f4dd905f90a3505050565b604080517f2a237f1478b63a0d5ddf88296d8465d2ff7e54af1ec051703aac39be0192605960208201529081018490526001600160a01b0383166060820152608081018290525f90819060a0016040516020818303038152906040528051906020012090506119f26123ca565b81604051602001611a04929190612c6b565b604051602081830303815290604052805190602001209150509392505050565b600354600160f01b900460ff1615611a4f576040516313d0ff5960e31b815260040160405180910390fd5b5f546001600160a01b03163314611a7957604051631bc2178f60e01b815260040160405180910390fd5b805f03611a995760405163150a67e960e01b815260040160405180910390fd5b5f8281526007602052604090206005015460ff1615611acb57604051637559a1f360e01b815260040160405180910390fd5b60408051610100810182528281525f602080830182815283850183815260608501848152426001600160401b039081166080880190815260a0880187815260c08901888152600160e08b018181528e8b5260078a52998c90209a518b559651968a01969096559351600289015591516003880180549351945163ffffffff9092166bffffffffffffffffffffffff199094169390931764010000000094909216939093021760ff60601b1916600160601b9215159290920291909117905551600484015590516005909201805460ff191692151592909217909155905182815283917fd0f9704be4bce09f40a4c93696983213296e143630e200993623d784fb1223289101610aa5565b600354600160f01b900460ff1615611c00576040516313d0ff5960e31b815260040160405180910390fd5b5f546001600160a01b03163314611c2a57604051631bc2178f60e01b815260040160405180910390fd5b5f828152600760205260409020600581015460ff16611c5c576040516378b1fccb60e11b815260040160405180910390fd5b6003810154600160601b900460ff1615611c885760405162560ff960e81b815260040160405180910390fd5b6003546001600160a01b0390811690831603611cb757604051631f5fa25960e31b815260040160405180910390fd5b5f8381526008602090815260408083206001600160a01b038616845290915290205460ff1615611cfa57604051637863668360e01b815260040160405180910390fd5b8054611d058361072e565b1015611d24576040516313424e8d60e31b815260040160405180910390fd5b80546001600160a01b0383165f9081526004602052604081208054909190611d4d908490612bf2565b909155505080546001820180545f90611d67908490612c86565b9091555050600381018054600191905f90611d8990849063ffffffff16612d21565b825463ffffffff9182166101009390930a9283029190920219909116179055505f8381526008602090815260408083206001600160a01b0386168085529252808320805460ff1916600117905551909185917fe08be21c14d9bc6d06fd0f02f2c1c608bdd5cdf648aabc85263adbc8079e3d119190a3505050565b600354600160f01b900460ff1615611e2f576040516313d0ff5960e31b815260040160405180910390fd5b5f546001600160a01b03163314611e5957604051631bc2178f60e01b815260040160405180910390fd5b805f03611e795760405163150a67e960e01b815260040160405180910390fd5b816001600160a01b0316836001600160a01b03161480611ea657506003546001600160a01b038481169116145b80611ebe57506003546001600160a01b038381169116145b15611edc57604051631f5fa25960e31b815260040160405180910390fd5b5f84815260066020526040902060030154600160581b900460ff1615611f155760405163332e591360e21b815260040160405180910390fd5b80611f1f8461072e565b1080611f32575080611f308361072e565b105b15611f50576040516313424e8d60e31b815260040160405180910390fd5b6001600160a01b0383165f9081526005602052604081208054839290611f77908490612c86565b90915550506001600160a01b0382165f9081526005602052604081208054839290611fa3908490612c86565b925050819055506040518060e00160405280846001600160a01b03168152602001836001600160a01b03168152602001828152602001600360149054906101000a900461ffff1661ffff168152602001426001600160401b031681526020015f151581526020016001151581525060065f8681526020019081526020015f205f820151815f015f6101000a8154816001600160a01b0302191690836001600160a01b031602179055506020820151816001015f6101000a8154816001600160a01b0302191690836001600160a01b03160217905550604082015181600201556060820151816003015f6101000a81548161ffff021916908361ffff16021790555060808201518160030160026101000a8154816001600160401b0302191690836001600160401b0316021790555060a082015181600301600a6101000a81548160ff02191690831515021790555060c082015181600301600b6101000a81548160ff021916908315150217905550905050816001600160a01b0316836001600160a01b0316857f30226c708afdf4b43dacc84c61433072c565bb979fe907d454887890b9482f8c8460405161215a91815260200190565b60405180910390a450505050565b6001546001600160a01b03163314612193576040516330cd747160e01b815260040160405180910390fd5b600280546001600160a01b0319166001600160a01b03838116918217909255600154604051919216907f38d16b8cac22d99fc7c124b9cd0de2d3fa1faef420bfe791d8c362d765e22700905f90a350565b5f878152600760205260409020600581015460ff16612216576040516378b1fccb60e11b815260040160405180910390fd5b6003810154600160601b900460ff16156122425760405162560ff960e81b815260040160405180910390fd5b8442111561226357604051630407b05b60e31b815260040160405180910390fd5b6003805490820154612290916001600160401b03600160b01b909104811691640100000000900416612ccf565b6001600160401b03164211156122b957604051630958f03d60e21b815260040160405180910390fd5b80600101548611156122de5760405163326fd31d60e01b815260040160405180910390fd5b5f6122eb89898989611024565b5f549091506001600160a01b0316612305828787876125f0565b6001600160a01b03161461232c57604051635cd5d23360e01b815260040160405180910390fd5b60038201805460ff60601b1916600160601b1790556004820188905560018201545f9061235a908990612bf2565b6001840189905590508015612398576003546001600160a01b03165f9081526004602052604081208054839290612392908490612c86565b90915550505b897f5db51e3098794c0f527f98d0ae2a98c92d754c270a1cc443002d47f328225b0f8a604051610f8091815260200190565b5f7f0000000000000000000000000000000000000000000000000000000000000000460361241757507f000000000000000000000000000000000000000000000000000000000000000090565b50604080518082018252600b81526a4368657373457363726f7760a81b6020918201528151808301835260018152603160f81b9082015281517f8b73c3c69bb8fe3d512ecc4cf759cc79239f7b179b0ffacaa9a75d522b39400f818301527fd60b16d74d928aa68838c64515218e4e6159fd9a65b5a9b2cc9a28d313555d1f818401527fc89efdaa54c0f20c7adf612882df0950f5a951637e0307cdcb4c672f298b8bc660608201524660808201523060a0808301919091528351808303909101815260c0909101909252815191012090565b6040516001600160a01b03831660248201526044810182905261254b9063a9059cbb60e01b906064015b60408051601f198184030181529190526020810180516001600160e01b03166001600160e01b0319909316929092179091526126fb565b5050565b5f81815b858110156125e4575f87878381811061256e5761256e612cf6565b905060200201359050808311156125ae576040805160208101839052908101849052606001604051602081830303815290604052805190602001206125d9565b6040805160208101859052908101829052606001604051602081830303815290604052805190602001205b925050600101612553565b50909214949350505050565b5f7f7fffffffffffffffffffffffffffffff5d576e7357a4501ddfe92f46681b20a082111561263257604051635cd5d23360e01b815260040160405180910390fd5b604080515f8082526020820180845288905260ff871692820192909252606081018590526080810184905260019060a0016020604051602081039080840390855afa158015612683573d5f803e3d5ffd5b5050604051601f1901519150506001600160a01b0381166126b757604051635cd5d23360e01b815260040160405180910390fd5b95945050505050565b6040516001600160a01b03808516602483015283166044820152606481018290526126f6906323b872dd60e01b90608401612514565b505050565b5f807f00000000000000000000000000000000000000000000000000000000000000006001600160a01b0316836040516127359190612d3e565b5f604051808303815f865af19150503d805f811461276e576040519150601f19603f3d011682016040523d82523d5f602084013e612773565b606091505b50915091508115806127a157508051158015906127a157508080602001905181019061279f9190612d6a565b155b156126f6576040516312171d8360e31b815260040160405180910390fd5b80356001600160a01b03811681146127d5575f80fd5b919050565b5f602082840312156127ea575f80fd5b6127f3826127bf565b9392505050565b5f6020828403121561280a575f80fd5b5035919050565b801515811461281e575f80fd5b50565b5f60208284031215612831575f80fd5b81356127f381612811565b5f8083601f84011261284c575f80fd5b5081356001600160401b03811115612862575f80fd5b6020830191508360208260051b850101111561287c575f80fd5b9250929050565b5f805f805f8060808789031215612898575f80fd5b8635955060208701356001600160401b03808211156128b5575f80fd5b6128c18a838b0161283c565b909750955060408901359150808211156128d9575f80fd5b506128e689828a0161283c565b979a9699509497949695606090950135949350505050565b5f806040838503121561290f575f80fd5b612918836127bf565b9150602083013561ffff8116811461292e575f80fd5b809150509250929050565b5f806040838503121561294a575f80fd5b8235915061295a602084016127bf565b90509250929050565b5f805f805f60808688031215612977575f80fd5b85359450612987602087016127bf565b93506040860135925060608601356001600160401b038111156129a8575f80fd5b6129b48882890161283c565b969995985093965092949392505050565b803560ff811681146127d5575f80fd5b5f805f805f8060c087890312156129ea575f80fd5b863595506129fa602088016127bf565b945060408701359350612a0f606088016129c5565b92506080870135915060a087013590509295509295509295565b5f805f8060808587031215612a3c575f80fd5b5050823594602084013594506040840135936060013592509050565b5f805f805f805f805f60e08a8c031215612a70575f80fd5b8935985060208a01356001600160401b0380821115612a8d575f80fd5b612a998d838e0161283c565b909a50985060408c0135915080821115612ab1575f80fd5b50612abe8c828d0161283c565b90975095505060608a01359350612ad760808b016129c5565b925060a08a0135915060c08a013590509295985092959850929598565b5f805f60608486031215612b06575f80fd5b83359250612b16602085016127bf565b9150604084013590509250925092565b5f8060408385031215612b37575f80fd5b50508035926020909101359150565b5f805f8060808587031215612b59575f80fd5b84359350612b69602086016127bf565b9250612b77604086016127bf565b9396929550929360600135925050565b5f805f805f805f60e0888a031215612b9d575f80fd5b87359650602088013595506040880135945060608801359350612bc2608089016129c5565b925060a0880135915060c0880135905092959891949750929550565b634e487b7160e01b5f52601160045260245ffd5b8181038181111561075b5761075b612bde565b5f8184825b85811015612c39576001600160a01b03612c23836127bf565b1683526020928301929190910190600101612c0a565b509095945050505050565b5f6001600160fb1b03831115612c58575f80fd5b8260051b80858437919091019392505050565b61190160f01b81526002810192909252602282015260420190565b8082018082111561075b5761075b612bde565b808202811582820484141761075b5761075b612bde565b5f82612cca57634e487b7160e01b5f52601260045260245ffd5b500490565b6001600160401b03818116838216019080821115612cef57612cef612bde565b5092915050565b634e487b7160e01b5f52603260045260245ffd5b5f60208284031215612d1a575f80fd5b5051919050565b63ffffffff818116838216019080821115612cef57612cef612bde565b5f82515f5b81811015612d5d5760208186018101518583015201612d43565b505f920191825250919050565b5f60208284031215612d7a575f80fd5b81516127f38161281156fea264697066735822122001215a4ffca31b67e67f94c958daa9ec0c1d782712d7f4b07633c16b14a5c79464736f6c63430008180033","linkReferences":{}},"methodIdentifiers":{"RESULT_TYPEHASH()":"123f8e9f","TOURNAMENT_ROOT_TYPEHASH()":"84d8b218","TOURNAMENT_TYPEHASH()":"c93fb269","acceptOwnership()":"79ba5097","available(address)":"10098ad5","bankroll(address)":"c0f36970","claimRefund(bytes32,address)":"c6b49688","claimTimeout(bytes32)":"aaa5a02a","claimTournament(bytes32,address,uint256,bytes32[])":"6349d596","deposit(uint256)":"b6b55f25","digestGameResult(bytes32,address,uint256)":"cfce87d1","digestTournamentResult(bytes32,address[],uint256[],uint256)":"28171308","digestTournamentRoot(bytes32,bytes32,uint256,uint256)":"7a0e5336","enterTournament(bytes32,address)":"ddbf4445","feeBps()":"24a9d853","feeRecipient()":"46904840","games(bytes32)":"f579f882","locked(address)":"cbf9fe5f","openGame(bytes32,address,address,uint256)":"ed6013d9","openTournament(bytes32,uint256)":"d998e4a4","oracle()":"7dc0d1d0","owner()":"8da5cb5b","paused()":"5c975abb","pendingOwner()":"e30c3978","setFee(address,uint16)":"337f3a31","setOracle(address)":"7adbf973","setPaused(bool)":"16c38b3c","settleGame(bytes32,address,uint256,uint8,bytes32,bytes32)":"770d0e9e","settleTimeout()":"7ebdc478","settleTournament(bytes32,address[],uint256[],uint256,uint8,bytes32,bytes32)":"97261140","settleTournamentRoot(bytes32,bytes32,uint256,uint256,uint8,bytes32,bytes32)":"f9e5a5ce","token()":"fc0c546a","tournamentClaimed(bytes32,address)":"33ba3555","tournamentEntered(bytes32,address)":"6bdaa7f2","tournaments(bytes32)":"139cfab1","transferOwnership(address)":"f2fde38b","withdraw(uint256)":"2e1a7d4d"},"id":1}